:020000040800F2
:10000000F01A002071020008F11600084F0B0008DA
:10001000ED160008950500086F2500080000000097
:10002000000000000000000000000000F11C0008BB
:10003000150A000800000000251A000889020008BF
:100040008B0200088B0200088B0200088B0200085C
:100050008B0200088B0200088B0200088B0200084C
:100060008B0200088B0200088B0200088B0200083C
:100070008B0200088B0200088B0200088B0200082C
:100080008B0200088B0200088B0200088B0200081C
:100090008B0200088B0200088B0200088B0200080C
:1000A0008B0200088B0200088B0200088B020008FC
:1000B0008B0200088B0200088B0200088B020008EC
:1000C0008B0200088B0200088B0200088B020008DC
:1000D0008B020008752000084921000871220008E1
:1000E0008B0200088B0200088B0200088B020008BC
:1000F0008B0200088B0200088B0200088B020008AC
:100100008B0200088B0200088B0200088B0200089B
:100110008B0200088B0200088B020008651E000895
:100120008B0200088B0200088B0200088B0200087B
:100130008B0200088B0200088B0200088B0200086B
:100140008B0200088B0200088B0200088B0200085B
:100150008B0200088B0200088B0200088B0200084B
:100160008B0200088B0200088B0200088B0200083B
:100170008B0200088B0200088B0200088B0200082B
:100180008B0200088B02000800F002F800F060F813
:100190000AA090E8000C82448344AAF10107DA45E2
:1001A00001D100F055F8AFF2090EBAE80F0013F0D4
:1001B000010F18BFFB1A43F001031847E0250000A8
:1001C0000026000010F8013B0A4413F0030408BFA6
:1001D00010F8014B1D1108BF10F8015B641E05D01B
:1001E00010F8016B641E01F8016BF9D1002D15D0D8
:1001F00010F8014B03F00C030C2BA1EB04040ABF15
:1002000010F8013BA4EB8314A4EB032405F10103D4
:1002100014F8016B5B1E01F8016BF9D5914238BFF0
:1002200010F8013BD1D3704700230024002500269D
:10023000103A28BF78C1FBD8520728BF30C148BF49
:100240000B6070471FB502F0A3FA1FBD10B510BDBB
:1002500000F0C5F81146FFF7F5FF02F063FA00F071
:10026000E3F803B4FFF7F2FF03BC00F0EDF8000081
:100270000948804709480047FEE7FEE7FEE7FEE73A
:10028000FEE7FEE7FEE7FEE7FEE7FEE70448054976
:10029000054A064B70470000FD1D00088901000853
:1002A000F0140020F01A0020F0160020F0160020B4
:1002B000401ECAB210F8011F8A4202D00029F9D1AB
:1002C000002070474FF000020429C0F0128010F0A7
:1002D000030C00F01B80CCF1040CBCF1020F18BF22
:1002E00000F8012BA8BF20F8022BA1EB0C0100F0B5
:1002F0000DB85FEAC17C24BF00F8012B00F8012B88
:1003000048BF00F8012B70474FF0000200B51346BC
:1003100094469646203922BFA0E80C50A0E80C5025
:10032000B1F12001BFF4F7AF090728BFA0E80C50D6
:1003300048BF0CC05DF804EB890028BF40F8042BCF
:1003400008BF704748BF20F8022B11F0804F18BF3C
:1003500000F8012B704700004FF0013C50F8042BCF
:1003600051F8043B9A4221D1A2EB0C03934313EAC8
:10037000CC1317D150F8042B51F8043B9A4215D1F5
:10038000A2EB0C03934313EACC130BD150F8042BCC
:1003900051F8043B9A4209D1A2EB0C03934313EAB0
:1003A000CC13DBD04FF00000704700BFD01A01BA69
:1003B000B1FA81F101F0180122FA01F0CB40C1F14C
:1003C0002001DBB2C0B2C01A2CFA01F3D11A91435A
:1003D00011EAC311E6D17047704770477047754600
:1003E00000F02CF8AE4605006946534620F00700A1
:1003F000854618B020B5FFF749FFBDE820404FF013
:1004000000064FF000074FF000084FF0000B21F0FE
:100410000701AC46ACE8C009ACE8C009ACE8C009CB
:10042000ACE8C0098D46704710B50446AFF30080B4
:100430002046BDE81040FFF714BF00000048704799
:10044000901400207047000001491820ABBEFEE761
:100450002600020010B5142001F0AAFB044604F0A7
:10046000030018B90321142001F043FC10BD000063
:100470001CB50121202001F0D7FA4FF480700090C4
:1004800001208DF8040000208DF8060003208DF86F
:10049000050000208DF807006946024800F0D6FAF2
:1004A0001CBD00000014024010B529480078012846
:1004B0004CD128A12A48FFF74FFF00283BD14FF429
:1004C0008071284800F041FB4FF48071264800F00D
:1004D0003CFB4FF40051254800F035FB642002F04E
:1004E000E7F84FF48071204800F02DFB01F03EF951
:1004F0001FA200210C2001F0C7F921A205210C2028
:1005000001F0C2F94FF4FA7002F0D2F84FF4FA7029
:1005100002F0CEF84FF40051144800F016FB4FF4EF
:100520008071104800F00FFB01F020F910A20021AB
:100530000C2001F0A9F90020054908704FF48071E2
:100540000748FFF7BFFE00201149086010BD0000FA
:10055000500F00206C6F636B5F6F70656E2300003F
:100560006C0F00200000024000140240000802400E
:10057000B0B2C5B5D6C7C4DCC3C5CBF80000000017
:10058000C0B6D1C0BDE2CBF8B3C9B9A60000000027
:100590004C0F002000BFFEE72DE9F04107468846DA
:1005A00015460421052000F027FA80210A2001F0D9
:1005B000A0FB0021012002F065F8002405E0395D70
:1005C000092002F05FF8601C84B24445F7DB032188
:1005D000012002F057F84FF47A7400BF052001F0B3
:1005E000E7FA0646601E84B21CB106F0040000283B
:1005F000F4D0222001F0DCFA2870212001F0D8FA92
:1006000068700021012002F03DF8BDE8F081000093
:1006100010B501F0ABF8E6A200210C2001F034F98E
:10062000E7A20221122001F02FF9BEE14021E748A4
:1006300000F089FA8021E54800F087FA8021E4483B
:1006400000F083FA1021E34800F07FFA4FF40061D4
:10065000E14800F066FAD0B94021DC4800F06AFABF
:10066000A8B93121DD4802680068401CDB4B1860E6
:10067000DB4881541946097809011031C8B231228A
:10068000042101F099F94FF4967002F011F820213D
:10069000D44800F046FAC8B94021CC4800F04AFAE4
:1006A000A0B93222CD4801680068401CCB4B1860CD
:1006B000CB4842541946097809011031C8B20421C7
:1006C00001F07AF94FF4967001F0F2FF4021C14831
:1006D00000F027FAD0B94021BC4800F02BFAA8B9A5
:1006E0003321BE4802680068401CBC4B1860BC48FF
:1006F00081541946097809011031C8B23322042106
:1007000001F05AF94FF4967001F0D2FF4021AF4842
:1007100000F01BFA8021AD4800F015FA8021AC48AA
:1007200000F013FA1021AB4800F00FFA4FF400610B
:10073000A94800F0F6F9D0B98021A44800F0FAF9F0
:10074000A8B93421A54802680068401CA34B186072
:10075000A34881541946097809011031C8B23422DE
:10076000042101F029F94FF4967001F0A1FF202136
:100770009C4800F0D6F9D0B98021944800F0DAF90D
:10078000A8B93521954802680068401C934B186051
:10079000934881541946097809011031C8B23522AD
:1007A000042101F009F94FF4967001F081FF402116
:1007B000884800F0B6F9D0B98021844800F0BAF931
:1007C000A8B93621854802680068401C834B186030
:1007D000834881541946097809011031C8B236227C
:1007E000042101F0E9F84FF4967001F061FF402117
:1007F000764800F0AAF98021744800F0A6F980211B
:10080000734800F0A0F91021724800F09EF94FF4EF
:100810000061714800F085F9D0B980216C4800F082
:1008200089F9A8B937216D4802680068401C6B4BF4
:1008300018606B4881541946097809011031C8B213
:100840003722042101F0B8F84FF4967001F030FF20
:100850002021644800F065F9D0B980215C4800F09F
:1008600069F9A8B938215D4802680068401C5B4BF3
:1008700018605B4881541946097809011031C8B2E3
:100880003822042101F098F84FF4967001F010FF1F
:100890004021504800F045F9D0B980214C4800F083
:1008A00049F9A8B939214D4802680068401C4B4BF2
:1008B00018604B4881541946097809011031C8B2B3
:1008C0003922042101F078F84FF4967001F0F0FE1F
:1008D00040213E4800F039F980213C4800F035F9CC
:1008E00080213B4800F031F910213A4800F02BF903
:1008F00020213C4800F015F9D0B91021354800F00E
:1009000019F9A8B93021354802680068401C334BFA
:100910001860334881541946097809011031C8B26A
:100920003022042101F048F84FF4967001F0C0FE27
:100930004021284800F0F5F888B91021254800F03A
:10094000F9F860B92321254802680068401C234B50
:100950001860234881544FF4967001F0A9FE1F4897
:100960000068401E1E49085C23281ED100201B4938
:10097000086000F0FBFE0EA200210C2000F084FFB6
:1009800019A205210C2000F07FFF4FF4FA7001F04E
:100990008FFE4FF4FA7001F08BFE00F0E7FE04A228
:1009A00000210C2000F070FF00E03FE600BF10BD0A
:1009B000B0B2C5B5D6C7C4DCC3C5CBF800000000D3
:1009C000CAE4C8EBD0C2C3DCC2EB0000000C02409A
:1009D000000402400000024000080240640F0020B2
:1009E0005C0F002000100240C3DCC2EBD0DEB8C4B4
:1009F000B3C9B9A60000000070B505460C46002634
:100A0000284601F0D5F8064626EA0401284601F0FA
:100A100039FE70BD704710B5002108E00C2200BF00
:100A2000131EA2F10104E2B2FAD14A1C91B2814232
:100A3000F4DB10BD044900E0521C11F8013B002B0F
:100A4000FAD1500870470000600E0020F0B50A4649
:100A500000210023002400BF3DE0012505FA01F339
:100A6000156805EA03049C4234D105684F0003264B
:100A7000BE40B543056015794E00B5400668354364
:100A800005601579012D02D01579022D16D18568E2
:100A90004F000326BE40B543856055794E00B540F2
:100AA000866835438560456801268E40B5434560BC
:100AB000456896798E40B6B235434560C5684F00AB
:100AC0000326BE40B543C560D5794E00B540C66823
:100AD0003543C560491C1029BFD3F0BDF0B50023D4
:100AE00000244D07ED0E02FA05F3CE1000F12005AB
:100AF00055F826504E07F70E0F26BE40B543CF10CF
:100B000000F1200646F82750CE1000F1200555F8D8
:100B1000265045EA0304CE1000F1200545F8264092
:100B2000F0BD0246002013690B400BB1012000E02C
:100B3000002070470246002053690B400BB1012092
:100B400000E000207047418370470183704700BF79
:100B5000FEE700001CB50121042000F065FF012123
:100B6000042000F061FF01208DF8040003208DF8BF
:100B7000050000208DF8060001208DF807004020B8
:100B8000009069460548FFF761FF4FF480700090C0
:100B900069460248FFF75AFF1CBD000000080240EA
:100BA0001CB50121402000F03FFF00208DF804001B
:100BB00001208DF807004020009069460148FFF7AA
:100BC00045FF1CBD000802401CB50121042000F0B7
:100BD0002BFF01208DF8040003208DF80500002074
:100BE0008DF8060001208DF807004020009069462E
:100BF0000148FFF72BFF1CBD0008024010B5FFF7AE
:100C0000E3FF40210D48FFF7A0FF4FF480710B4830
:100C1000FFF79BFF052001F069FD40210748FFF722
:100C200092FF052001F062FD4FF480710348FFF749
:100C30008AFF052001F05AFD10BD000000080240A7
:100C400010B5FFF7C1FF40210D48FFF77CFF4FF4BF
:100C500080710B48FFF777FF052001F047FD4FF447
:100C600080710748FFF771FF052001F03FFD40212B
:100C70000348FFF76AFF052001F038FD10BD0000B2
:100C80000008024010B5FFF78BFF4FF48071114848
:100C9000FFF759FF052001F029FD4FF480710D4841
:100CA000FFF753FF052001F021FD40210948FFF720
:100CB00038FF08B1002400E00124052001F016FDF2
:100CC0004FF480710348FFF73EFF052001F00EFD51
:100CD000204610BD000802401CB50121084600F066
:100CE000A3FE0121022000F09FFE0121042000F05C
:100CF0009BFE0121082000F097FE0121102000F04A
:100D000093FEC020009001208DF8040000208DF893
:100D1000060003208DF8050001208DF807006946C4
:100D20002048FFF793FE8020009069461E48FFF799
:100D30008DFE1020009069461C48FFF787FE4FF497
:100D40000060009000208DF8040001208DF807005D
:100D500069461748FFF77AFE2020009000208DF8A2
:100D6000040001208DF8070069461248FFF76EFE67
:100D70004020009000208DF8040001208DF807002D
:100D800069460A48FFF762FE4FF4007000900020A9
:100D90008DF8040001208DF8070069460648FFF72A
:100DA00055FE1CBD000C0240000402400000024041
:100DB00000080240001002400018024010B5402117
:100DC000FD48FFF7C0FE8021FB48FFF7BEFE8021F3
:100DD000FA48FFF7BAFE1021F948FFF7B6FE4FF4C4
:100DE0000061F848FFF79DFEC8B94021F248FFF7BF
:100DF000A1FEA0B93122F4490868411CF24B1960E8
:100E0000F2490A541946096809011031C8B22A2268
:100E1000042100F0D1FD4FF4967001F049FC20212F
:100E2000EB48FFF77EFEC8B94021E348FFF782FE9A
:100E3000A0B93222E4490868411CE34B1960E34938
:100E40000A541946096809011031C8B22A2204213E
:100E500000F0B2FD4FF4967001F02AFC4021D84812
:100E6000FFF75FFEC8B94021D348FFF763FEA0B982
:100E70003322D5490868411CD34B1960D3490A5421
:100E80001946096809011031C8B22A22042100F06C
:100E900093FD4FF4967001F00BFC4021C648FFF71C
:100EA00054FE8021C448FFF74EFE8021C348FFF75F
:100EB0004CFE1021C248FFF748FE4FF40061C148C4
:100EC000FFF72FFEC8B98021BB48FFF733FEA0B95A
:100ED0003422BD490868411CBB4B1960BB490A5408
:100EE0001946096809011031C8B22A22042100F00C
:100EF00063FD4FF4967001F0DBFB2021B448FFF74F
:100F000010FEC8B98021AC48FFF714FEA0B9352205
:100F1000AD490868411CAC4B1960AC490A541946EC
:100F2000096809011031C8B22A22042100F044FDE9
:100F30004FF4967001F0BCFB4021A148FFF7F1FD92
:100F4000C8B980219C48FFF7F5FDA0B936229E491B
:100F50000868411C9C4B19609C490A541946096851
:100F600009011031C8B22A22042100F025FD4FF4F6
:100F7000967001F09DFB40218F48FFF7E6FD802130
:100F80008D48FFF7E2FD80218C48FFF7DCFD102142
:100F90008B48FFF7DAFD4FF400618A48FFF7C1FD87
:100FA000C8B980218548FFF7C5FDA0B93722864919
:100FB0000868411C844B196084490A541946096821
:100FC00009011031C8B22A22042100F0F5FC4FF4C7
:100FD000967001F06DFB20217D48FFF7A2FDC8B996
:100FE00080217648FFF7A6FDA0B938227649086827
:100FF000411C754B196075490A5419460968090165
:101000001031C8B22A22042100F0D6FC4FF49670A9
:1010100001F04EFB40216A48FFF783FDC8B98021EB
:101020006648FFF787FDA0B9392267490868411C67
:10103000654B196065490A54194609680901103160
:10104000C8B22A22042100F0B7FC4FF4967001F0D8
:101050002FFB40215848FFF778FD80215648FFF7C5
:1010600074FD80215548FFF770FD10215448FFF7AB
:101070006AFD4FF400615348FFF753FD50B910214A
:101080004F48FFF757FD28B9FFF7C2FA4FF49670A3
:1010900001F00EFB20214E48FFF743FDC8B9102197
:1010A0004748FFF747FDA0B9302247490868411C6F
:1010B000454B196045490A54194609680901103120
:1010C000C8B22A22042100F077FC4FF4967001F098
:1010D000EFFA40213A48FFF724FD80B91021384843
:1010E000FFF728FD58B9232237490868411C364BC1
:1010F000196036490A544FF4967001F0D9FA324813
:101100000068401E3149085C232854D131492F48DA
:10111000FFF722F9E0BB4FF480712948FFF715FD76
:101120004FF480712C48FFF710FD4FF40051254813
:10113000FFF709FD642001F0BBFA4FF480712648E7
:10114000FFF701FD00F012FB24A200210C2000F0AB
:101150009BFB26A205210C2000F096FB4FF4FA70B1
:1011600001F0A6FA4FF4FA7001F0A2FA4FF4005120
:101170001448FFF7EAFC4FF480711148FFF7E3FCD5
:1011800000F0F4FA15A200210C2000F07DFB51E0E4
:10119000FFE700F0EBFA11A200210C2000F074FB35
:1011A00016A204210C2000F06FFB18A206212820B3
:1011B00000F06AFB2EE045E0000C02400004024013
:1011C0000000024000080240540F00206C10002074
:1011D000001002405C0F002000140240B0B2C5B500
:1011E000D6C7C4DCC3C5CBF800000000C3DCC2EB2B
:1011F000BDE2CBF8B3C9B9A600000000C3DCC2EB66
:10120000CAE4C8EBB4EDCEF300000000C7EBD6D8BB
:10121000CAD400004FF4FA7001F04AFA4FF4FA70A1
:1012200001F046FA00F0A2FAAFF2500200210C20C1
:1012300000F02AFB4FF480710348FFF743F80020C9
:101240000249086010BD00006C100020540F0020FF
:101250001CB50121084600F0E7FB4FF480700090B8
:1012600001208DF8040000208DF8060003208DF881
:10127000050000208DF8070069460248FFF7E6FBED
:101280001CBD0000000002402DE9FC41044600277F
:1012900008210846FFF7B0FB80210E20FFF7ACFBCA
:1012A00000210D2001F0EEF99320207020206070C5
:1012B00001A823460222214600900C2000F079F973
:1012C00006465EB9002503E0605D4740681CC5B274
:1012D000042DF9DB605DB84200D0022680210E208B
:1012E00000F007FD3046BDE8FC812DE9F04385B0F4
:1012F00006460F46904699468DF804608DF80570B5
:10130000002406E018F8041001AAA01C1154601C67
:10131000C4B2062CF6DB002407E019F8041001AA79
:1013200004F108001154601CC4B2042CF5DB04A8BD
:1013300001AB0C2201A900900E2000F03AF90546FD
:101340002DB9082000F034FC00F0080000B9022597
:10135000284605B0BDE8F08310B500F081FC00F030
:10136000CDF88D212A2001F08DF93E212B2001F0AE
:1013700089F932212D2001F085F900212C2001F07E
:1013800081F94021152001F07DF93D21112001F066
:1013900079F90021012001F075F9FFF75BF810BD24
:1013A00010B58CB02DA103C9CDE906010BA95220BF
:1013B00000F08AF80446002C4ED14FF48071294881
:1013C000FFF7C3FB4FF400512748FFF7BCFB4FF476
:1013D00080712648FFF7B9FB642001F069F94FF4EA
:1013E00080712248FFF7AFFB00F0C0F920A2002176
:1013F0000C2000F049FA22A205210C2000F044FA4A
:1014000008A8FFF741FF044608A800F097F808ABCA
:1014100006AA04216020FFF768FF044601A9042002
:1014200000F036F804464FF4FA7001F041F94FF439
:10143000FA7001F03DF94FF400510B48FFF785FBBE
:101440004FF480710748FFF77EFB00F08FF908A288
:1014500000210C2000F018FA0CB010BDFFFFFFFFB8
:10146000FFFF00000000024000080240001402409C
:10147000B0B2C5B5D6C7C4DCC3C5CBF80000000008
:10148000CBA2BFA8BDE2CBF8B3C9B9A6000000004B
:101490007CB505460C46302020706570A21C0221E8
:1014A0002046FFF779F801A8234604222146009040
:1014B0000C2000F07EF806461EB9BDF80400902806
:1014C00000D0022630467CBD7CB506460C4607217E
:1014D0000D2001F0D7F8267001A8234601222146ED
:1014E00000900C2000F065F805461DB9BDF8040019
:1014F000102800D0022528467CBD000010B54FF40E
:1015000000410D48FFF721FB0120FFF784FA4FF45B
:1015100000410948FFF717FB0120FFF77CFA4FF461
:1015200000410548FFF711FB0120FFF774FA0F2176
:10153000012001F0A7F810BD00180240F0B585B0F9
:10154000054693208DF8040070208DF805000020DA
:101550008DF80A0000240BE0295D01AAA01C11549B
:101560009DF80A00295D48408DF80A00601CC4B24D
:10157000042CF1DB0DF10B02072101A8FFF70CF899
:1015800008210846FFF738FA04A801AB092201A98F
:1015900000900C2000F00DF8074637B9BDF8100098
:1015A000182802D19DF8046000E00026304605B0FE
:1015B000F0BD2DE9FE4F0646884691469A46DDF875
:1015C00030B0022002900020019000900C2E06D036
:1015D0000E2E09D1122001901020009005E07720F6
:1015E00001903020009000E000BF00BF019840F063
:1015F0008001022001F046F880210420FFF7FCF969
:1016000080210A2000F075FB0021012001F03AF84A
:10161000002506E018F80510092001F033F8681CD1
:1016200085B24D45F6DB3146012001F02BF80C2E3A
:1016300003D180210D2000F05CFB42F2107500BF49
:10164000042000F0B5FA0446681E85B235B104F0F6
:10165000010018B9009820400028F1D080210D2009
:10166000FFF7CAF9002D36D0062000F0A1FA00F0ED
:101670001B0070BB0198204000F0010008B1012060
:1016800002900C2E22D10A2000F092FA04460C207F
:1016900000F08EFA00F007072FB1601E07EBC000C4
:1016A000ABF8000002E0E000ABF8000004B9012450
:1016B000122C00DD1224002506E0092000F078FA43
:1016C0000AF80500681C85B2A542F6DB00200290EE
:1016D00001E00220029080210C2000F0D3FF0021C5
:1016E000012000F0CFFF0298BDE8FE8F00BFFEE7AB
:1016F0007047000070B5002100230F22C4781CB38E
:10170000174C246804F4E064C4F5E064C4F30721D2
:10171000C1F10404E3B20A4144789C40E1B2847808
:10172000144021430C07210E0E4C057861550478B6
:1017300004F01F050124AC4005786D11AD0005F1E2
:10174000E025C5F8004109E0047804F01F050124F4
:10175000AC40054D0678761145F8264070BD000076
:101760000CED00E000E400E080E100E010B50020B6
:1017700000F001F810BD70B50646002415E004F134
:10178000B001C8B200F052FF002000F04FFF10205F
:1017900000F04CFF002504E0304600F05DFF681CBF
:1017A000C5B2822DF8DB601CC4B2082CE7DB70BD2B
:1017B00010B5FFF7CFF9AE2000F038FF002000F0A1
:1017C00035FF102000F032FF402000F02FFFB02046
:1017D00000F02CFF812000F029FFFF2000F026FF01
:1017E000A12000F023FFA62000F020FFA82000F099
:1017F0001DFF3F2000F01AFFC82000F017FFD32084
:1018000000F014FF002000F011FFD52000F00EFFC3
:10181000802000F00BFFD82000F008FF052000F02A
:1018200005FFD92000F002FFF12000F0FFFEDA20D2
:1018300000F0FCFE122000F0F9FEDB2000F0F6FEC6
:10184000302000F0F3FE8D2000F0F0FE142000F0B8
:10185000EDFEAF2000F0EAFE10BD70B504460D4667
:1018600005F1B001C8B200F0E1FEA11CC1F3031103
:1018700041F0100000F0DAFEA11C01F00F0141F070
:10188000010000F0D3FE70BD2DE9F0470746884601
:101890001646002580E03078A02843DD00253AE098
:1018A000702F04DD002708F1020000F0FF083078F7
:1018B0003C4911F8151088422CD17078012101EBB8
:1018C0004501384A515C884224D141463846FFF7E9
:1018D000C4FF002406E004EB4511334A505C00F0DD
:1018E000BBFE641C102CF6D308F10100C1B23846CF
:1018F000FFF7B3FF002407E004EB451110312A4A3B
:10190000505C00F0A9FE641C102CF5D307F1100008
:10191000C7B204E06D1C254800688542C0D300BFF3
:10192000B61C39E07A2F04DD002708F1020000F030
:10193000FF0831781E48FEF7BBFC8146B9F1000F65
:1019400029D041463846FFF788FF002409E099F87E
:101950000010203904EB0111164A505C00F07CFEA7
:10196000641C082CF3D308F10100C1B23846FFF71C
:1019700074FF00240AE099F80010203904EB0111EB
:1019800008310C4A505C00F067FE641C082CF2D34E
:1019900007F10800C7B2761C307800287FF47BAFCF
:1019A000BDE8F087600E002000060020480F0020F0
:1019B000E70E0020100000202DE9F04107460E46FA
:1019C000904600250024A8F12000C5B2812F02DD39
:1019D0000027B01CC6B231463846FFF73EFF002450
:1019E00007E004EB05110E4A505C00F035FE601C68
:1019F000C4B2082CF5DB701CC1B23846FFF72DFFCE
:101A0000002408E004EB05110831054A505C00F0A1
:101A100023FE601CC4B2082CF4DBBDE8F08100009A
:101A2000100000207047000029B1064A12680243E6
:101A3000044B1A6004E0034A12688243014B1A60A7
:101A4000704700003038024029B1064A126802434C
:101A5000044B1A6004E0034A12688243014B1A6087
:101A6000704700004038024029B1064A126802431C
:101A7000044B1A6004E0034A12688243014B1A6067
:101A8000704700002038024029B1064A126802431C
:101A9000044B1A6004E0034A12688243014B1A6047
:101AA000704700004438024029B1064A12680243D8
:101AB000044B1A6004E0034A12688243014B1A6027
:101AC0007047000024380240F0B5002100220024B5
:101AD000022500260223324F3F6807F00C0121B196
:101AE000042905D0082937D105E02E4F076036E0DC
:101AF0002D4F076033E02A4F3F1F3F68C7F38056E2
:101B0000274F3F1F3F6807F03F036EB1264FB7FBDB
:101B1000F3F7DFF88CC0ACF1040CDCF800C0CCF3B8
:101B2000881C07FB0CF40CE01E4FB7FBF3F7DFF843
:101B300070C0ACF1040CDCF800C0CCF3881C07FBCF
:101B40000CF4174F3F1F3F68C7F301477F1C7D0010
:101B5000B4FBF5F7076002E0124F076000BF00BF5B
:101B60000F4F3F6807F0F0010909104F7A5C0768D2
:101B7000D74047600A4F3F6807F4E051890A0B4F8E
:101B80007A5C4768D7408760054F3F6807F460413B
:101B9000490B064F7A5C4768D740C760F0BD00002C
:101BA000083802400024F40000127A0000000020EF
:101BB00070B5044640210A48FEF7C5FF7E2101EAC0
:101BC000440141F0800000F00DF8FF2000F00AF819
:101BD000054640210248FEF7B8FF284670BD0000C8
:101BE0000010024070B504460025002640211A4826
:101BF000FEF7A9FF052000F079FD00BF28E004F002
:101C0000800028B14FF400711448FEF79EFF04E0F5
:101C10004FF400711148FEF796FF6006040E052090
:101C200000F064FD40210C48FEF78FFF052000F016
:101C30005DFD6806050E80210848FEF772FF05432A
:101C400040210548FEF77FFF052000F04FFD761C80
:101C5000082ED4DB284670BD000402400008024074
:101C60001CB501210220FFF7DFFE01210420FFF750
:101C7000DBFE01211020FFF7D7FE01214020FFF7F6
:101C8000D3FE01208DF8040003208DF8050000200C
:101C90008DF8060001208DF80700C003009069460A
:101CA0000F48FEF7D3FE4020009069460D48FEF72E
:101CB000CDFE4020009069460B48FEF7C7FE4FF46A
:101CC0000070009069460948FEF7C0FE00208DF8BC
:101CD00004008020009069460448FEF7B7FE1CBD52
:101CE00000180240000402400010024000080240B8
:101CF000704770B505460C4600262846FFF758FF8A
:101D0000064646EA0401284600F0BCFC70BD00000F
:101D10000CB50020019000903448006840F48030F9
:101D20003249086000BF3148006800F4003000907C
:101D30000198401C0190009818B90198B0F5A04F87
:101D4000F1D12A48006800F4003010B10120009061
:101D500001E0002000900098012846D1234840303F
:101D6000006840F0805021494031086020480068F8
:101D700040F440401E4908601C48083000681B4978
:101D8000083108600846006840F4004008600846D2
:101D9000006840F4A05008601648091F0860081F3A
:101DA000006840F08070091F086000BF0F4800689D
:101DB00000F000700028F9D040F205700E4908606C
:101DC0000A480830006820F003000849083108601C
:101DD0000846006840F00200086000BF0348083071
:101DE000006800F00C000828F8D10CBD0038024053
:101DF0000070004008544007003C024010B51548F0
:101E0000006840F47000134908601348006840F00F
:101E100001001149086000200F49083108600E4890
:101E200000680E4908400C4908600D48091D08600B
:101E3000081F006820F48020091F08600020064960
:101E40000C310860FFF764FF4FF0006001498039F2
:101E5000086010BD88ED00E000380240FFFFF6FE8C
:101E60001030002410B50121094800F04CF868B189
:101E70000848008840F400400649088001210448D1
:101E800000F032F80021024800F031F810BD0000E7
:101E9000001400405A0F00207FB505460C46012172
:101EA0002020FFF7D1FD0195ADF800400020ADF8EE
:101EB0000800ADF8020069460A4800F041F8012226
:101EC0001146084800F030F837208DF80C0001204A
:101ED0008DF80D008DF80E008DF80F0003A8FFF7A8
:101EE00009FC7FBD00140040CA430282704721B143
:101EF000028842F00102028004E002884FF6FE737D
:101F00001A400280704730B50246002000230024AA
:101F1000158A05EA0103958905EA010413B10CB19C
:101F2000012000E0002030BD1AB183890B4383817A
:101F300002E083898B4383817047416270470000D0
:101F400000220288184B98420ED0184B98420BD0B2
:101F5000B0F1804F08D0164B984205D0154B9842EF
:101F600002D0154B984204D14FF68F731A404B881C
:101F70001A43124B984207D0114B984204D04FF6A7
:101F8000FF431A400B891A4302804B68C3620B88D7
:101F90000385054B984202D0044B984201D18B7ABD
:101FA0000386012383827047000001400004014042
:101FB0000004004000080040000C004000100040F9
:101FC0000014004010B588B0044601210846FFF710
:101FD0002BFD01211020FFF757FD0722092123487F
:101FE000FEF77CFD07220A212048FEF777FD02203C
:101FF0008DF8080003208DF8090000208DF80A00F4
:1020000001208DF80B004FF4C060019001A9174822
:10201000FEF71CFD04940020ADF81400ADF8160086
:10202000ADF81800ADF81C000C20ADF81A0004A99A
:102030000F4800F029FA25208DF80C0000208DF8BB
:102040000D008DF80E0001208DF80F0003A8FFF79A
:1020500051FB012240F22551054800F0EFF9012122
:10206000034800F03DF908B010BD00000000024038
:102070000010014010B5002440F22551064800F040
:10208000B3F9012807D1044800F068FAC4B2214628
:10209000014800F068FA10BD0010014010B588B08A
:1020A000044601210846FFF7BFFC01214804FFF761
:1020B000CBFC072202212248FEF710FD0722032154
:1020C0001F48FEF70BFD02208DF8080003208DF855
:1020D000090000208DF80A0001208DF80B000C206B
:1020E000019001A91648FEF7B1FC04940020ADF858
:1020F0001400ADF81600ADF81800ADF81C000C2067
:10210000ADF81A0004A90F4800F0BEF926208DF89A
:102110000C0000208DF80D008DF80E0001208DF8C8
:102120000F0003A8FFF7E6FA012240F22551054807
:1021300000F084F90121034800F0D2F808B010BD86
:10214000000002400044004010B540F225510F4805
:1021500000F04AF9012818D10D480068FF2814DC66
:102160000A4800F0FBF9C1B209480468601C084A3B
:1021700010600848015510460068401E0549085C7B
:10218000232802D101200449087010BD00440040FA
:102190004C0F00206C0F0020500F002010B588B0AD
:1021A000044601210846FFF73FFC01218804FFF7A0
:1021B0004BFC2B4800F0A0F8072202212948FEF72B
:1021C0008DFC072203212748FEF788FC02208DF8AA
:1021D00008008DF8090000208DF80A0001208DF814
:1021E0000B000C20019001A91E48FEF72FFC04945F
:1021F0000020ADF81400ADF81600ADF81800ADF8E9
:102200001C000C20ADF81A0004A9154800F03CF998
:102210000121134800F064F8012240F225511048D2
:1022200000F00CF927208DF80C0001208DF80D002E
:1022300000208DF80E0001208DF80F0003A8FFF795
:1022400059FA42F2CF0140F2E730FFF725FE0020B5
:102250000549088000210548FFF749FE08B010BD78
:1022600000480040000002405A0F002000140040C7
:1022700010B540F22551164800F0B6F800B31448E6
:1022800000F06CF9C4B21348008800F40040B8B9FB
:1022900010480088B0F5C87F13DA00210E48FFF718
:1022A0004CFE0C48008818B901210B48FFF71FFEAF
:1022B000084801880088401C064A1080074844549A
:1022C00005E00448008840F400400249088010BD41
:1022D000004800405A0F0020001400400013002066
:1022E00021B1828942F40052828104E082894DF654
:1022F000FF731A408281704710B504463248844209
:1023000008D101211020FFF7CFFB00211020FFF79B
:10231000CBFB57E02D48844209D101214804FFF747
:10232000A3FB00214FF40030FFF79EFB4AE0284852
:10233000844209D101218804FFF796FB00214FF464
:102340008020FFF791FB3DE02248844209D1012122
:10235000C804FFF789FB00214FF40020FFF784FB3E
:1023600030E01D48844209D101210805FFF77CFBBC
:1023700000214FF48010FFF777FB23E017488442D9
:1023800008D101212020FFF78FFB00212020FFF73B
:102390008BFB17E01248844209D101218807FFF71F
:1023A00063FB00214FF08040FFF75EFB0AE00D4821
:1023B000844207D101214005FFF756FB002160054B
:1023C000FFF752FB10BD0000001001400044004028
:1023D00000480040004C0040005000400014014004
:1023E00000780040007C004070B5024600240023C5
:1023F0000025002040F66A16B14200D100BFC1F3AB
:10240000421501F01F03012606FA03F3012D02D144
:102410009689334006E0022D02D1168A334001E04E
:10242000968A33400C12012606FA04F416883440CA
:1024300013B10CB1012000E0002070BDF0B50346DF
:10244000002400260025002040F66A17B94200D17A
:1024500000BF1846C1F3421401F01F06012707FA16
:1024600006F5012C01D10C3004E0022C01D1103012
:1024700000E014301AB107682F43076002E00768D4
:10248000AF430760F0BD00002DE9FF4705460E464B
:102490000024A14600BFA046B08900B100BF2C8A2D
:1024A00024F44054F08804432C82AC8941F20C603F
:1024B0008443B08831890843718908430443AC815F
:1024C000AC8A24F44074B0890443AC826846FFF7B8
:1024D000FBFA2048854202D01F48854202D1DDF830
:1024E0000C9001E0DDF80890A88900F4004040B1AC
:1024F00009EBC90000EB091031684900B0FBF1F7A6
:1025000007E009EBC90000EB091031688900B0FB56
:10251000F1F76420B7FBF0F004012009642101FB0E
:102520001078A88900F4004040B1322000EBC800C8
:10253000B0FBF1F000F00700044308E0322000EBAC
:1025400008106421B0FBF1F000F00F0004432C816F
:10255000BDE8FF8700100140001401400146888853
:10256000C0F308007047C1F308028280704700BFC3
:10257000FEE700001CB501210420FFF755FA4FF4D7
:102580000050009001208DF8040000208DF8060016
:1025900003208DF8050000208DF8070069460448E7
:1025A000FEF754FA4FF400510148FEF7CEFA1CBD75
:1025B0000008024070B505460024FEF705FB4021E7
:1025C0001948FEF7C0FA4FF480711748FEF7BBFABE
:1025D000052000F08BF800BF23E0C4F107010120C3
:1025E0008840284020B140210F48FEF7AEFA03E0B2
:1025F00040210D48FEF7A7FA052000F077F84FF4C8
:1026000080710948FEF7A1FA052000F06FF84FF439
:1026100080710548FEF797FA052000F067F8601C06
:10262000C4B2082CD9DB70BD0008024010B50446C6
:10263000FEF7E4FA7820FFF7BDFFFEF723FB00204A
:10264000FFF7B8FFFEF71EFB2046FFF7B3FFFEF7CC
:1026500019FBFEF7F5FA10BD10B50446FEF7CEFAE9
:102660007820FFF7A7FFFEF70DFB4020FFF7A2FF42
:10267000FEF708FB2046FFF79DFFFEF703FBFEF782
:10268000DFFA10BD70B504460D4640210748FEF73D
:102690005AFA7E2101EA4400FFF7A4FA2846FFF720
:1026A000A1FA40210148FEF750FA70BD0010024027
:1026B00000214FF0E022116140F641214143012207
:1026C000C2EBC1014FF0E022516100219161012173
:1026D000116100BF4FF0E021096901F48031002948
:1026E000F8D000214FF0E0221161704700214FF037
:1026F000E0221161C0EBC00101EB4101491E5161B3
:10270000002191610121116100BF4FF0E0210969B1
:1027100001F480310029F8D000214FF0E02211614E
:10272000704700004FF41650FFF74CFC4FF4165062
:10273000FFF7B4FC4FF46140FFF730FDFEF788FD72
:10274000FDF796FEFFF716FFFEF7C6FAFEF704FE4A
:10275000FEF770F909490860FFF72AF8FFF706F855
:1027600007A200210C20FFF78FF805E0FEF726FBFB
:10277000FDF79AFEFEF714FEF8E70000480F002070
:10278000B0B2C5B5D6C7C4DCC3C5CBF800000000E5
:102790004FF04070E1EE100A70470000BC270008BF
:1027A000000000206C0F0000C4010008F032000897
:1027B0006C0F0020840B000028020008120001208A
:1027C000050102030404000610060708090001526F
:1027D000F8083233061004100C0603711D20044063
:1027E000C07803200500043F04031008000070882F
:1027F000FC08302E100E1820FF211E0000F008F0FB
:1028000000E0183E4005211C031E111388700FE0E4
:102810000C1E2123241927211010160E702005E00C
:102820001804026A300B071820400000020418E068
:1028300069200420180770300E4080F0804040006E
:102840000202010F01022832F0C4100401011F042A
:102850007145C00480B0705642010171B9833030B7
:102860002C3008601804006018063E1006E01008BE
:1028700008107210070F102020100FF046100010E3
:102880000620203F20202D3004700808C21006309A
:1028900028242221E91006300888884808200618D4
:1028A00020202011CC33C020321407070424243FF9
:1028B000243E11204007080800001921202405E0CB
:1028C00010888810430F11101006380808C83820E7
:1028D000300400003F8D4370886080071C22212156
:1028E000221C9010060031222211901161C2C0C238
:1028F0006280C651081004402010701407010204C1
:10290000081020303101430004011300001522405B
:10291000321125130402F2137048D13543133036B7
:102920000F1406C030C828E8002008071827242301
:10293000140B6F22387E200D203C23020227382002
:1029400008F88888FF250E21D017C03010270838D6
:10295000AD15303406080008F80840312015402134
:10296000303004E8081030A004232018102300039E
:102970005E21403638ED200520221E024011A410B1
:1029800009F808203F210101212522085295805194
:10299000112006C08080807F0E2007F888C028188C
:1029A0000870400501263820405200A01320302036
:1029B0001004F800F85417203F60214F4004F8300D
:1029C000C0601220E4363F5F21B025EF41B021D036
:1029D00033F0008083010020300718242438504F42
:1029E000C0250131C034040C3020B021C13738205B
:1029F000B032189F42188231A041D023001F90347A
:102A0000081F000878880000F1100407380E6011D4
:102A10009B12F8B5401D00033C0700073C0300086B
:102A20001868808068180820302C03032C30200898
:102A300038C82F5150218F213F18042038265129A2
:102A4000494C0400FE020803267FE85804000C30BD
:102A50001F1805000106382A111D3EFEA903274054
:102A60004030100400000412FE04E503528001F21D
:102A7000001D311619C01806242222223F00320000
:102A80000F5B003FC0312119D01A0ED04320114BEB
:102A90004388F8102210B35140121F3F2322131E07
:102AA0001AF0428618D041772408006B94949493CE
:102AB000600B310F158041F3BC048098988003525D
:102AC00000125901153B31311406203F24022D8F8D
:102AD0002930ADB00361D7214B2103112BC16071A7
:102AE000A045A031202D400493FFA1E04280E033B7
:102AF000A0FF4C315019A18004200001C0133324E1
:102B0000012219E046E02125F252004D4280601575
:102B10001031EC25681C05010E3008720421702567
:102B20006318040F300C4F320F2C41A16007312E77
:102B30000E312000303C0580818E70A20455A73CE8
:102B4000050021302C8004215F4A7C012B003F01CD
:102B50005C040000FFB9053108340402027CB04F68
:102B6000404060041E0236054D6005454D1008903A
:102B70008C848484F58605300484948C6C3C0984B0
:102B800046492810102C232704100B4042CC00008B
:102B900044445FC474052B4444671E20A00523FFF2
:102BA000420119591010108C4404E40495A64424E1
:102BB000148444940C6F10077A414143427E1E2EC8
:102BC000430705280E0484E45C44C40002F28282B8
:102BD00082FE5F1406017F10103FA610050808480A
:102BE00088931C0E2010EC27F42CE00022920ED2C9
:102BF000221F06180F80601F093F89FF000A09097C
:102C0000FF0909E83C0E102CE7242400E22C20BF29
:102C10002028E6E8051C067F2111804F5C0424046F
:102C200010204FAA3D910320090808FF08090AC88F
:102C300008401C0C0010201F804021161826415B04
:102C4000033D90031C08081010FF101010E7041C2F
:102C5000061030101F08B10534050E0140801240E7
:102C60000540301E101E1F1010BE052C1081814122
:102C700021110D0301030D11214181815E03100813
:102C8000FA02FE4020D8173F112220078047300F5C
:102C900010675F1404081621221204FE1C0C0FF4A6
:102CA0000404F444CF44444404A006340C7D44445A
:102CB0007D4445447C44457C8F13C2B2FB11FD2109
:102CC0000625D83D79053E41BD043DD706380CF8B0
:102CD00007F0A0904C5724A4544C7A2C0BFF001FF3
:102CE00080925249292412F7042604995C06FC407C
:102CF00030CC0B090580067F201010088011A12C14
:102D000008121212F212121E08071C10FF00100EF9
:102D1000013F0101FF11211F000F4021034D00065B
:102D200033FF4401491F491A2D1F062DCF07251ACD
:102D3000100690003F4848211C084270000444825D
:102D40007F970423FF490111271C052030AC631233
:102D5000074004F8090E7F70062267221292FF1EB8
:102D6000801F071C0CD0FF9014E4AFA4A4A4AFE410
:102D70005F06130403C12C0A894B2A1A0E1A2A4B28
:102D8000882803140520FF20208626FF8A3580240A
:102D9000040F88486335611406001060028C641EBD
:102DA000F2A50422F897340504047E01642C04275C
:102DB0000047E0032A40812290012005FF101116F0
:102DC000B21C09003F1028603F101041032C0C403A
:102DD000F0002424A4FE2322003E5E041F223EFFB6
:102DE0000310070601FF010640BD127FC31E411FED
:102DF000051EFCFB061C0814155694543414A00838
:102E00001E40640319441C0441817F3208170503E6
:102E1000FF180EEF242480E49C105454FF547C10BF
:102E200060400E7F21512618274445455F454544A3
:102E3000A0300B109252321E3252921210A0140483
:102E40000021185B4406083004093140295942F832
:102E5000E012806125781D2703132020071680F8D3
:102E600042FE0531E129F33004BF403F23224F28C1
:102E70001C0CFE225A8620102824E32428720815F0
:102E80007A2006040827110DA012055F2C04000209
:102E9000FA38031C084020504C434C501009441091
:102EA00008184884443F404458414E6058474020E9
:102EB0004C070004C40404FCE00725201F48400C14
:102EC000065C067F41414140C00310055454547FC5
:102ED000042A44901941580900FF15151555957F8E
:102EE0000020109020988888E98E8888A898000291
:102EF0004281B63C07844B28102847E9052DD804A9
:102F00001724FC5E15673D4F063006020242827FA1
:102F1000082D80092C040202C2630639E44E0267C0
:102F20000651043D78082C0F201808EAACA8A8AF79
:102F3000A8A8ACEA0828090A223E422C05FF020292
:102F400012EF03113F13F2920122FE0512F2502CF0
:102F5000040404FFAB08140707040444847FB0C2D0
:102F600080010D109E0A2405020C80607533C8088C
:102F70005F1B0202401D2C0A3C0506010618E908E9
:102F80001D67041D61094F0090E4032DF80810042B
:102F90000C0304296E43820332FEA85EFF37093515
:102FA000B91DE8033E3F38031C05780002E2F7062E
:102FB00052FE0412E2E12AFF6312160427024CBFFC
:102FC000AE8040043A10B02D1A05327F0615003D40
:102FD00020035C0A1000FC24E4242223E220031CCA
:102FE0000783601F804126A00411A01C04020CC0AE
:102FF000240A2C04484848C204168A4F2E7F98049D
:103000002C091E925E20173846F111052BF807DFB8
:103010003AE2DF2D72061C0DFF2011090503FF03A4
:10302000050911208004240584E41C07A31804A4C6
:103030006424E01DD30987FF00A21DCF05538292AF
:10304000011D7F051E8007066C0C22241048807F1E
:10305000040818242210048C0601E21CE0003E0A39
:103060002E0C99091DDD082DE0032009001088C4ED
:103070003300BEAA0122BEAF3160530A1262213072
:103080001C04908886A0064F838C590A257D5F0713
:10309000005D056D00061C082010E82724E434E8D4
:1030A000054D00062DE6055806093F49897FC09D5C
:1030B000B5061DC606239048432DFF0B5A80E01C21
:1030C00004FC24A47F083FA36231054C0D1F205847
:1030D000475048454245485040FF081DFF045F12D5
:1030E000F2E8082D790316270F3E277F034D600471
:1030F0009D00033DC003AD00031E0CBA061C040472
:103100000506240424052444140CC11D38032E4153
:103110003D034E414E0726FC5B3F3DA607033D4065
:10312000041F1013720512FF731E121006180F40B1
:10313000445465C664544400FC4444C442F01F1225
:103140004A1D031F0A9287063D80072C1D88681FB1
:10315000C80810C85452D1129408D0100009190997
:10316000FF0500FF1292FF005FE0042C041094534F
:103170005B042F100032074E7E9D053D7C053D7E91
:10318000051DE0081C0ECC4A49484ACC18007F882F
:10319000888482980C11791F52926004527E105CD0
:1031A00004F8010696034DE90985483D64042DE0C5
:1031B0000430066448487F48043E40E0048E11DF36
:1031C000054D20043B809E213E9E29081C057F2042
:1031D0009484CE07160F101B8484C01714D43E307D
:1031E00006FC525252D3F010084050575555557FA7
:1031F000040C051F57504040A00500E813B0B2C5AD
:10320000B5C3DCC2EBBDE2CBF8B3C9B9A6CAA7B05F
:10321000DCC0B6D1C0D0DEB8C4CBA2BFA8D6B8CE71
:10322000C6C4A3BFE9B2E2CAD4B3CCD0F2BCFCCCD2
:10323000EDBCD3C9BEB3FDD1E9D6A4C7EBB0B4CAC7
:10324000D6D5FDB3A3D4D9D2BBB4CEB6D4B1C8C100
:10325000BDC9FAB0E5BCF5B1A3B4E6C2BCC8EBB5D4
:10326000C3B7D6C8B7C8CFB7B5BBD8C7E5BFD5BFFA
:10327000E2D0C2CAE4D6C7C4DCC3C5B4EDCEF3D62F
:10328000D8CAD400202122232425262728292A2B06
:103290002C2D2E2F303132333435363738393A3BF6
:1032A0003C3D3E3F404142434445464748494A4BE6
:1032B0004C4D4E4F505152535455565758595A5BD6
:1032C0005C5D5E5F606162636465666768696A6BC6
:1032D0006C6D6E6F707172737475767778797A7BB6
:1032E0007C7D7E0001900635323132231B000000C8
:040000050800018965
:00000001FF
